:020000040000fa
:080000000002040000000000f2
:020000040000fa
:10000800b0020000b0020000b0020000b002000020
:10001800b0020000b0020000b0020000b002000010
:10002800b0020000b0020000b00200000818000092
:10003800b0020000b0020000b0020000b0020000f0
:10004800b0020000b0020000b0020000b0020000e0
:10005800b0020000b0020000b0020000b0020000d0
:10006800b0020000b0020000b0020000b0020000c0
:10007800b0020000b0020000b0020000b0020000b0
:10008800b0020000b0020000b0020000b0020000a0
:10009800b0020000b0020000b0020000b002000090
:1000a800b0020000b0020000b0020000b002000080
:1000b800b0020000b0020000b0020000b002000070
:1000c800b0020000b0020000b0020000b002000060
:1000d800b0020000b0020000b0020000b002000050
:1000e800b0020000b0020000b0020000b002000040
:1000f800b0020000b0020000b0020000b002000030
:10010800b0020000b0020000b0020000b00200001f
:10011800b0020000b0020000b0020000b00200000f
:10012800b0020000b0020000b0020000b0020000ff
:10013800b0020000b0020000b0020000b0020000ef
:10014800b0020000b0020000b0020000b0020000df
:10015800b0020000b0020000b0020000b0020000cf
:10016800b0020000b0020000b0020000b0020000bf
:10017800b0020000b0020000b0020000b0020000af
:10018800b0020000b0020000b0020000b00200009f
:10019800b0020000b0020000b0020000b00200008f
:1001a800b0020000b0020000b0020000b00200007f
:1001b800b0020000b0020000b0020000b00200006f
:1001c800b0020000b0020000b0020000b00200005f
:1001d800b0020000b0020000b0020000b00200004f
:1001e800b0020000b0020000b0020000b00200003f
:0801f800b0020000b00200009b
:020000040000fa
:10020800b0020000b0020000b0020000b00200001e
:10021800b0020000b0020000b0020000b00200000e
:10022800b0020000b0020000b00200000818000090
:10023800b0020000b0020000b0020000b0020000ee
:10024800b0020000b0020000b0020000b0020000de
:10025800b0020000b0020000b0020000b0020000ce
:10026800b0020000b0020000b0020000b0020000be
:10027800b0020000b0020000b0020000b0020000ae
:10028800b0020000b0020000b0020000b00200009e
:10029800b0020000b0020000b0020000b00200008e
:1002a800b0020000b0020000b0020000b00200007e
:1002b800b0020000b0020000b0020000b00200006e
:1002c800b0020000b0020000b0020000b00200005e
:1002d800b0020000b0020000b0020000b00200004e
:1002e800b0020000b0020000b0020000b00200003e
:1002f800b0020000b0020000b0020000b00200002e
:10030800b0020000b0020000b0020000b00200001d
:10031800b0020000b0020000b0020000b00200000d
:10032800b0020000b0020000b0020000b0020000fd
:10033800b0020000b0020000b0020000b0020000ed
:10034800b0020000b0020000b0020000b0020000dd
:10035800b0020000b0020000b0020000b0020000cd
:10036800b0020000b0020000b0020000b0020000bd
:10037800b0020000b0020000b0020000b0020000ad
:10038800b0020000b0020000b0020000b00200009d
:10039800b0020000b0020000b0020000b00200008d
:1003a800b0020000b0020000b0020000b00200007d
:1003b800b0020000b0020000b0020000b00200006d
:1003c800b0020000b0020000b0020000b00200005d
:1003d800b0020000b0020000b0020000b00200004d
:1003e800b0020000b0020000b0020000b00200003d
:0803f800b0020000b002000099
:020000040000fa
:10040000af9620000eff27000e01880000000000bc
:1004100000012000200288000c00070000c121001c
:10042000010020001f000700000020000000e00085
:100430000200320000000200000000007e130200f3
:10044000000000000040da000000fe004440a90067
:10045000e00220000000e000030032000000200065
:10046000a00188004440a80000000600f03fb10051
:100470000180b10006003500ee0309000000000015
:10048000403fb1000180b100fbff3d001000b00013
:10049000203fb0000200350000800900000000008d
:1004a0000000060091018800800078000000eb0049
:1004b00015003700e280400032a0b4009101ba007c
:1004c000e280400032a0b4009102ba00e280400015
:1004d00032a0b4000002eb00472bde00f507b200ab
:1004e000602ce10004003a000059eb008301e900b0
:1004f000fdff3e00040037006128e10001003200ea
:100500000082eb00040007001101ba000200e000c5
:10051000e8ff3a00000006003159ba008301e90003
:100520000c0032002159ba008301e90008003200b2
:100530000400e00003003a00e280400032a0b40072
:10054000f5ff370011d9ba008301e900faff3a003c
:100550008100e800e180400032a0b4000000060005
:100560000040da000000fe0000c0da0000000600d3
:100570000a00fa00e20f500022003e00444b8000c7
:10058000e10f52000600320087232000462320009e
:100590002423200005232000e08f530004003a00ac
:1005a000872220004622200024222000052220004d
:1005b000000028001500600003003a00800b78005e
:1005c00007002800958a730005402000948262008d
:1005d00001003a0014a0a000820278000600370053
:1005e000940378000710b200fdff3200b103fb0056
:1005f000070b78008502e900e08f5200f8ff3a000f
:100600000800370034002000b4bf9f00c0bf9f0027
:10061000d1bf9f00e2bf9f006a805700d2ff070052
:100620006fb99700020078000080fa000000060011
:10063000889fbe008a9fbe008c1f780015010700ae
:100640001c01330003866c006450e100240032007a
:100650006420e100270032006150e10022003200f6
:100660006120e100210032008b854200eb07b100e0
:100670000134b800003ab8000804420089844a00f6
:10068000013ab8000030b8008880400009014a00f3
:10069000040033000000400081804800020149004e
:1006a0008b05e900c909dd008301700001003200fb
:1006b00013002000c814de004814dd004709de00e6
:1006c0001200b200c808de000884700009010700ab
:1006d00001f0a1000cf0a70001f0a000fe0037001f
:1006e0006120e100000132000801be000200be00ee
:1006f000f7ff37006150e100fcff3a00fa003700d5
:100700000001be00210107000470a70003f0a10052
:100710006509b100160032000d0035006828e100bf
:1007200006003500f0ff2f00f1ff27000300e00076
:1007300013003b00010028000000050000004000fd
:10074000818048008502e900fcff3a00080037007c
:10075000f88f420002003c008000eb000000050022
:100760008100d1000080d3008502e800fcff3a0040
:100770000300e00002003b0060001000e080180071
:10078000000006006011b8001501370003f0a20058
:10079000889fbe008a9fbe008c1f7800bd000700a6
:1007a000c40033006450e1004f0032006420e100d7
:1007b0005200320003826c0007003b000905d000a4
:1007c0000306d000820f54000c065d0002003900c1
:1007d0000200320089017800030678008582550006
:1007e00004003d000003fd008103fd008502ea00d6
:1007f0008b854200840f720002003b0060001000f5
:10080000e08018006011b8000005eb007a28e100d4
:100810000a00390006007800c75ddd00f707b20066
:10082000878075002d003700828171000a017800f1
:10083000610560008180d1000080d3008502e9005d
:10084000f9ff3b00060440008784480002003b009b
:1008500060041400e0841c000988a3000700320033
:100860008a81710082817100610164008904d10074
:100870000884d3008b05e800170037000978a3002f
:1008800013003a000b00e000130034008b05e90070
:100890000804440089844c000a4474000978a300c9
:1008a0000d003a000b00e000070034008b05e90062
:1008b0000804440089844c0001003a000b00200029
:1008c0000978a300f7ff32000001eb0002003700b7
:1008d000828171000a017800860007000cf0a700f1
:1008e00001f0a0007c0037006420e10002003a0023
:1008f000838f6c007c0033000801be000200be0044
:1009000075003700889fbe008a9fbe008c1f78004c
:10091000600007006700330003866c006450e1004c
:100920002e0032006420e100330032006150e1000b
:100930002f0032006120e100310032008585550032
:10094000eb07b00009002000080420000500370074
:100950000804440089844c000a0031000603430067
:1009600087834b000001530081815b00f8ff330057
:100970000203be000800a0000804440089844c0063
:10098000f6ff3900c639dd00830173000100320033
:10099000130020008904d1000884d3000998a30023
:1009a000050032000800a7000300a0008904d10060
:1009b0000884d3008b05e8008904d1000884d300a3
:1009c0000001eb000281d2004a00070001f0a10003
:1009d0000cf0a70001f0a0003f0037006420e10008
:1009e000410032000801be000200be00f7ff3700e0
:1009f0006120e1003c0032006000b800f3ff3700e6
:100a00000000200001f82700f0ff37004f89de00ca
:100a100082017800a10037000001be005b000700e2
:100a20000470a70003f0a10003f8a30013003a002c
:100a30006509b10010003200090035006928e100a5
:100a40000200350001002800000005000000400001
:100a5000818048008502e900fcff3a0000000600a2
:100a6000f88f4200050035008100d1000080d300de
:100a70008502e800fcff3a00000006008000eb0061
:100a8000000005000081eb00940037000001eb003e
:100a9000920037000004be003c0007000003be00c7
:100aa0000405be000200be0038000700844f750038
:100ab000000006000200be006450e10005003600a0
:100ac0006420e100020036000968a30001003a003a
:100ad0000800be000160a0004f0678004f05be0070
:100ae0004f04be0000000600f0ff2f00f1ff2700ba
:100af000f9ff370081002000618055000b003d00a8
:100b00000b00200061fe2f000100e1001d003400f9
:100b100082817100610164008904d1000884d300de
:100b20000000e800faff3a00710020006100640054
:100b300003007000020060000900320061044400fc
:100b4000e0844c000988a500050032008b05e80010
:100b50006808e10002003a008904d1000884d3004b
:100b6000f20f20000258e10005003d00c75ddd00e6
:100b7000f907b200898075000800780000000600bf
:100b80000bf827008b00780000000500c70ade0084
:100b9000f107b200f50fb20008003200e1cf4200c9
:100ba000020032000170a00024000500810f7000d7
:100bb000010032000408050044000500810f7000a8
:100bc00002003a00140005008502e9000000400020
:100bd00081c04800fcff3b000170a000240005001c
:100be000889fbe008a9fbe000082700004027100d0
:100bf00004827100260032000004be000200be0024
:100c00006011b8006b092000950220000182cf001e
:100c10000a0039000541b1000082cf000700390009
:100c20000541b1000982cf00040039000541b1003f
:100c30000882cf00010039000541b1000542520091
:100c4000120032000a003b008281710061016400e1
:100c50008100d1000080d3008984d3000884d300b0
:100c60008b05e8000442e800f7ff3a000700370070
:100c70000804440089844c0000004800818048003a
:100c80008b05e9000442e900f9ff3a0099ff0700eb
:100c90004f05be004f04be0000000600881f78000c
:100ca000030478000300e00007003d00600010002e
:100cb000e080180060011900e081190002003b008b
:100cc00001f02d0003003700c5ff070008f0a70062
:100cd00001f0a0004f04780000000600889fbe00cd
:100ce0008a9fbe008c9fbe00820578000004be0073
:100cf000a6ff07000800be006420e10007003900dd
:100d000002003a00f1ff2700f0ff2f000160a00071
:100d10001202200082438800550037006120e10064
:100d200003003a000b00a70001f823005000370031
:100d300001f0a1000200210093642400500007008c
:100d40000800be0004003500b2fd2000930c240012
:100d50004d0007000004be000005eb000b00a600dc
:100d60004f0dde0001f0a1000004be0032982f00fc
:100d700023ea23002efe07000001eb0003f023000e
:100d80000b00a70003f8230081fe07005cfe0700ac
:100d90000000a7000a00a2001cff07000b00e000f3
:100da000030032000200200003f0230077fe07005a
:100db00001f0a2000006be000200200093042400ff
:100dc0001bfe07000801be0071fe0700809fbe00e9
:100dd0000c00be0022a22a00d3a7230014fe0700a5
:100de0004f01be006afe07000004be0001f0a10032
:100df0000200200003982300210007000800be0025
:100e0000190035000001be0009fe07000006be0003
:100e1000b2c52900e362230005fe070022222b0051
:100e2000f3942b005afe07000c01be0000fe0700e1
:100e3000e273280083c0230055fe07000c01be00aa
:100e4000fbfd070042aa2a00a3e22b0050fe070088
:100e50000c01be00f6fd07000801be00f4fd07000e
:100e60000801be004afe07000a00a70001f0a20028
:100e70004f06be004f05be004f04be000000060036
:100e80001400200002003700040020001b0037007f
:100e9000889fbe008a9fbe00841f7800fdfe070069
:100ea0004f00780011003300f0ff2f00838f6c009b
:100eb00006003b00040565000a00a7000800370093
:100ec00009f0a6001000200008003700820f54002f
:100ed000838f5c00030039001000200001003e00f9
:100ee0000000200009f0a7000000ea004f05be0046
:100ef0004f04be000000e00000000600889fbe0016
:100f00008a9fbe008c1f78004f26dd00e1fe07009f
:100f1000e8fe33006120e100430032006250e1004e
:100f200041003e003e0039006420e1003c003200f8
:100f3000058255000f003b000402e80038003a002b
:100f4000800f5300818f5b00350034000800be0025
:100f500003f0a10001f0a60003f0a0000cf0a70030
:100f60000bfe0700dcfe37000603430087834b00bf
:100f70000c4646000005530081855b0002003300eb
:100f80000a03be000c00a0000402e900f6ff3b00cb
:100f9000850578000602430087824b0004003a0072
:100fa0006000b80009f0a70001f0a000cafe3700f9
:100fb0000002520081825a000704e000040033005e
:100fc0000603430087834b008b05e900faff3700d7
:100fd000090578000604be000203be006011b800d7
:100fe000c4fe0700e00f5200e08f5a0007003500f2
:100ff00002003c000c08a300040032000601be0001
:1010000003f0a0000cf0a700e1fd07000a856800ce
:1010100001f0a1000af0a70001f0a000aefe370029
:101020000800be00acfe3700100220000cf0a60045
:1010300080438800acfe3700889fbe008a9fbe00b8
:101040003004be002005be000404440085844c002a
:1010500006054d0087854d000898be000a90be0029
:101060000440e10005c8e10006d0e10007d8e10036
:1010700002003100680040001008e8004f05be0083
:101080004f04be00000006001000fa00889fbe005a
:101090008a9fbe000605be000404be003002be00ea
:1010a0002003be00c4b79f00d5b79f00e6b79f00de
:1010b000f7b79f000802520089825a000a035b00ba
:1010c0008b835b0084bf9f0095bf9f00a6bf9f00de
:1010d000b7bf9f000498be000698be001100200014
:1010e0004fb29700dfb297006fb39700ffb397003e
:1010f000b2000700010039008000eb0010881000ea
:101100004f05be004f04be000080fa00000006003c
:101110001400fa00889fbe008a9fbe008c9fbe000c
:10112000790007000605be000404be000006eb00bf
:10113000ccb79f00bcb79f00acb79f009cb79f0087
:101140008cb79f000d0420004fb39700bfb29700eb
:10115000860343002fb29700e00f530004003d00c8
:101160009b0007000f004000b3ff0700030037009b
:10117000970007000f004000c3ff0700cfb29700a1
:1011800095bf9f00e08f5200090035006500070001
:1011900014002000050020006033b8000000720039
:1011a0008180720002017300838173005600070082
:1011b0000c06e8008d0f5600e3ff3a001fba9700b7
:1011c000e00f520005003d000802be000a03be0009
:1011d00000fe2f000f00400097ff07004faa970066
:1011e000e00f520008003a000fb497009fb4970038
:1011f0002fb59700bfb59700d8b79f00e9b79f00fc
:10120000fab79f008bbf9f00460007004f06be0045
:101210004f05be004f04be000080fa00000006002b
:10122000881f780018002000881f7800b8ff07008a
:101230008f87e9004f04780000000600801feb0054
:10124000b3ff07008f87e90000000600889fbe00fb
:101250008a9fbe004100070007003d0044000700d0
:10126000180020004900070008003d002f0007007b
:101270000004eb00050037000004eb00430007000a
:1012800002003d002900070018002000e4ff0700cd
:10129000e00f540001003200410007004f05be007e
:1012a0004f04be0000000600889fbe008a9fbe005b
:1012b0008c1f78002900070005003d002c00070066
:1012c0001c0020003d00070007003d00050037001e
:1012d0000006eb002d00070003003d006044b8004d
:1012e0006055b80013000700d4ff0700e00f560058
:1012f000010032002a0007004f0678004f05be00ab
:101300004f04be00000006000100070000000600b8
:1013100090b79f00a1b79f00b2b79f00c3b79f00cf
:101320000000060008000700000006006044b80046
:101330006055b8000402540085825c0006035d001d
:1013400087835d00000006001fb09700afb09700d4
:101350003fb19700cfb1970000000600e00f5000aa
:10136000e08f5800e00f5900e08f590000000600a0
:101370006044b8006055b8000000540081805c00f3
:1013800002015d0083815d0000000600e00f520055
:10139000e08f5a00e00f5b00e08f5b00000006006a
:1013a0006022b8006033b8000000520081805a000b
:1013b00002015b0083815b00000006000820e10061
:1013c00009a8e1000ab0e1000bb8e1000000060046
:1013d0004f2bde0087037300a7b79f004f23de006b
:1013e000858242008502730095b79f00ffaa97008f
:1013f0004f2bde00040242000402730084b79f00fa
:101400006faa97004f23de00858242008502730099
:10141000f5af9f00ccff07004f18de00040242002a
:1014200000027200e4af9f00c7ff07000000400009
:10143000818048000201490083814900b4ff070010
:101440000802be000a03be0000fe2f0000000600d6
:101450004211880000118800111188000000060068
:101460000000fa0068815700cfb8970080942000f0
:101470002c0007000080fa0000000600881f78009a
:101480000004780038009000000278001420b200b8
:10149000e10f520005003a000002eb00140498002e
:1014a00028029000040c78001900370080027800b0
:1014b0002520b2000000eb0024202000848f520081
:1014c00016003a00a8009000808f500013003200f0
:1014d00018019000800f5100100032004800900069
:1014e00023fc070018029000840f50000300320014
:1014f000380290000403b300340498000002eb00ab
:101500001404980028029000040c78003800900021
:101510000002b200010032000080eb004f047800ae
:10152000000006002f03b000889fbe008a9fbe0007
:101530008c9fbe008e1f7800e0af9f00c1af9f0060
:10154000b2b79f008006eb006e023700cfa897006d
:101550008100e800c1af9f0054c2b300844f500027
:1015600006003a00010278000006eb0001c3b30058
:1015700000c2b300b7c2b300070037000000fb0091
:10158000efa897006b020700e10f40005d023200f8
:101590008d06e8005b02370084027800344378004f
:1015a000d2c2b300824f53000900320005003c0054
:1015b000804f530008003200874f53000c003a0060
:1015c00007003700814f530009003a00060037003a
:1015d0000c30a000f0ff37000c00a000eeff370039
:1015e0000c10a000ecff37000c20a000eaff370031
:1015f00062026600010032000c00a1006802660071
:10160000010032000c20a1000602fb000403b1001f
:10161000e90f52000c003e00050378000002eb00c9
:101620006a22b900b603fb000703b100048243003d
:10163000860278009603fb000703b100e98f530090
:10164000f7ff3600080037000002eb00a7c2b30026
:10165000874f530004003a00bfb19700430278005f
:10166000b3b79f008502e8000007eb00e6c2b300b5
:10167000954f13000a003a000ce0a00064435300a9
:10168000d54f130002003200050378000800370030
:101690003fb3970046077800b6b79f008502e80081
:1016a00005037800080037006a70b900008743001e
:1016b00086027800b603fb000703b100e98f5300f0
:1016c000f9ff3600f6ff3700b6427800c6af9f003c
:1016d000c0c6b30080cf5200250032000f003c008e
:1016e00036c6b30086cf52006e00320004003c00c4
:1016f000e0cf5200080232006b4353000f00370066
:1017000046c6b30086cf520017003200654343003f
:1017100086cf520083003a001300370036c7b3006b
:1017200086cf52001f00320007003c006443530084
:1017300086cf5200140032000643e80086cf5200e4
:1017400078003a001300370056c7b30086cf520026
:10175000790032006343430086cf520071003a00a3
:10176000a5c79f000d003700a5c79f007400370074
:10177000f00366000501200001003200050028008a
:1017800005067600d0ff3700a5c79f000c60a000bb
:101790006b003700a5c79f000c50a0000c70a00084
:1017a00067003700a5c79f00bfb09700c10278004f
:1017b000b1b79f0005047800e08f520001003a00a5
:1017c00048932000080378008002eb0001003700f6
:1017d0008502e800e6c37a00e0cf5300fcff3a0040
:1017e00085047800e00f570003003200890f57008e
:1017f000010031008e0478000007eb00890f5200d1
:1018000001003600090752006806660014003a001d
:1018100007003700efa8970000022000c50107006d
:10182000e10f4000010032008d06e8000e07e900dc
:10183000e00f5700f7ff3a000087eb000800370081
:10184000080278003400fb0004047800efa8970039
:10185000b8010700e10f4000010032008d06e800ea
:10186000090278008404e900e00f5200f4ff3a0016
:10187000e00f5600a301320007003700efa89700e1
:1018800000022000ab010700e10f40000100320020
:101890008d06e8000e07e900e00f5700f7ff3a0059
:1018a000980137003fb19700c2027800b2b79f009d
:1018b00005007800cf80de00010178008201780009
:1018c000f0af9f0081b79f0092b79f00a3b79f0022
:1018d0004800de00c80add0000807200a0c79f003b
:1018e0007003660009003200e04f5000070032002c
:1018f000e14f400005003200b0c79f006fdb97004a
:10190000c6c79f002900200003003700efdb9700c7
:10191000b7c79f001900200038fc2f000f044400b7
:10192000b0ff3700a5c79f0028fc2f000f0444001c
:1019300019002000abff3700a5c79f000c0cb300b7
:101940008c027800050cb2002b003a00e00f560024
:1019500005003d003fb097004005be004004be00ba
:10196000b0b79f0017003700f00266000f0032008a
:10197000bfb297004501be00b5b79f00c2a79f0048
:10198000d3a79f000503780096029000cfaade003f
:10199000e5a79f00f5a79f004fa49700dfa497003d
:1019a0006fa59700ffa59700060037003fb097008e
:1019b00040047800b0b79f00cfc4de00090578006e
:1019c0008a057800e00f5400e08f5c00e00f5d00b6
:1019d000e08f5d0025003d003c00b3006000b800d2
:1019e0006011b80008045000898458000a055900a5
:1019f0008b8559001d003700e00f560005003d00a3
:101a0000bfb097004105be004104be00b1b79f00c2
:101a100016003700f00266000e003200bfb29700d9
:101a20004501be00b5b79f0082af9f0093af9f00f6
:101a30000003eb00a6af9f008003eb00b7af9f0051
:101a40000fac97009fac97002fad9700bfad9700ec
:101a5000060037003fb0970040047800b0b79f0001
:101a6000090020000a0020000b002000e00f5700b2
:101a700007003a001e002000e00f5400e08f5c00d9
:101a8000e00f5d00e08f5d00010032000007eb0019
:101a90008c007800010cb200f1af9f00050420001b
:101aa000858f50002c00320003003c00e08f500076
:101ab000080032003c003700050820007fa997008d
:101ac000850f510010003200050c2000850f5100d9
:101ad00035003a00a687200015c0b3003600be00ce
:101ae0003601be000040e10001c8e10002d0e10083
:101af00003d8e1002b0039008542e800f4cf520002
:101b0000f6ff3a002700370015c0b300000120009f
:101b1000010020006011b8000040e10001c8e100b0
:101b200002d0e10003d8e1001e0039004600200089
:101b30000000d0008180d2000281d2008381d200d7
:101b40000603e900faff3a008542e800f0cf5200b0
:101b5000f1ff3a001300370015c0b30080002000e9
:101b6000010020006011b8000040e10001c8e10060
:101b700002d0e10003d8e1000a003900370020005c
:101b80000000d0008180d2000281d2008381d20087
:101b90008703e900faff3a008542e800f5cf5200da
:101ba000f1ff3a00a5c79f002fc097008002fb00fd
:101bb0008e8f520002003d00aec79f000300370029
:101bc000850f570001003d0005077800e00f520027
:101bd00003003200e3026600010032000402e90063
:101be0000500240085026600050032008e0f5200b9
:101bf000020034000e025200010037000002eb0028
:101c00002fc197008202fb008001eb00d3af9f0041
:101c1000850f52000200340085025200d5af9f00ac
:101c2000640266002c003200e20266006102660077
:101c3000e08f520006003200b0022000e00f520098
:101c4000010032000080e800efa897000400370090
:101c5000e00f520006003200efa8970000022000bb
:101c6000b4000700e10f4000010032008d06e800db
:101c70005faa9700e00f52008d0032000802be00fc
:101c80000a03be00dfac9700efa897000003200016
:101c9000c4b79f00d5b79f00e6b79f00f7b79f0076
:101ca000a40007004fb29700dfb297006fb3970010
:101cb000ffb39700e10f4000010032008d06e800fd
:101cc0008904e900f0ff3a00d9af9f000605be0085
:101cd0000404be0076003700dfaa9700e08f5200b0
:101ce000180032006802660016003a000802be00c2
:101cf0000a03be00dfac9700efa8970000022000a7
:101d0000c4b79f00d5b79f00e6b79f00f7b79f0005
:101d1000880007004fb29700dfb297006fb39700bb
:101d2000ffb39700e10f4000010032008d06e8008c
:101d30008904e900f0ff3a00d9af9f000605be0014
:101d40000404be00e202660061026600e08f5200f9
:101d500006003200b0022000e00f52000100320005
:101d60000080e800efa8970004003700e00f520061
:101d70004f003200efa89700000220006d0007001e
:101d8000e10f40004a0032008d06e80048003700ad
:101d90000e07e9007fab970007042000870f530070
:101da0002d00320003003c00e00f53000800320019
:101db00037003700040820007fae9700840f5600dc
:101dc00012003200040c2000840f560030003a004c
:101dd0004372dd0020872000000242005403be0051
:101de0004402be000800be000a01be000cfd070050
:101df000a4002000050020006033b8000ffd07009c
:101e000004c3b30004424000200037003492200095
:101e1000bfa29700e08f5200010032002491200001
:101e2000c272dd000800be000a01be008502e900a2
:101e3000050033008301d1000281d3008180d300eb
:101e40000080d300f9ff37006f0060006440780025
:101e5000a0c79f000e0037006372b9000800be00e3
:101e60000a01be00040678000c06e90005003300f4
:101e70008301d1000281d3008180d3000080d30090
:101e8000f9ff3700674260000443b000a4c79f0019
:101e9000afc097000100fb00efa8970025000700e6
:101ea000e10f4000060032008d06e8000400370014
:101eb0000c0178000202b200b2a79f008cbf9f0005
:101ec000e00f5700b2ff3a000fbe970068066600a9
:101ed0000c003200dfa99700e08f510009003400a8
:101ee00003067800efa89700000220001100070009
:101ef000e10f4000010032008d06e8000c06e90009
:101f0000f8ff3a004faa970014407800a0c79f003e
:101f1000e04f50008dfd3a000d0078004f0778002b
:101f20004f06be004f05be004f04be002f03b10098
:101f300000000600889fbe0001047800380290006f
:101f4000e20262008084eb003b0032000403780070
:101f50000620b2009802900002003a00e08f520082
:101f600035003a000490a000340498008004780002
:101f7000f90fb200e08f520002003a00a802900070
:101f8000050c7800ea8f540005003a000408b200fe
:101f900003003a0088007800d0002000e5ff070029
:101fa00018029000d8029000850f52000b003200fa
:101fb0000402e8001404980018027800094a780026
:101fc000040ce80015c0b30024962000054a7800f0
:101fd000ea8f540018003a000500370088007800a6
:101fe00009407800170007008004780012003700cd
:101ff000380290000410b2000f0032001801900067
:10200000a80090004800900059f9070018029000bd
:10201000840f500004003200380290000403b30023
:10202000340498008084eb000002eb001404980054
:1020300028029000040c7800090078004f04be00cc
:10204000000006000200fa00889fbe00a0ff9f006b
:102050000104780038029000840278000504b20080
:10206000020032000000fb0035003700e20262008f
:1020700005003a000403b3003404980015049800e6
:102080000080eb002e003700d8049000e08f540051
:1020900006003a0012002000e68057004800900039
:1020a00033f907001904980023003700a8029000b4
:1020b000e08f520008003a00559620002504980051
:1020c000050c7800250020005504980015049800a0
:1020d0000430a0003404980018019000a80090007b
:1020e0004800900022f90700280290008082eb004f
:1020f00015049800affa9700054a7800040ce80030
:102100002ffa9700ea4f52000b003a003802900075
:102110000410b2000800320018019000a8009000de
:102120004800900012f907000002eb001404980028
:10213000a8029000050c78002ffa97000400fb001d
:0c2140004f04be000080fa000000060002
:020000040000fa
:10214c002d2d000020420000616c00006c2000006e
:10215c00706f000073690000746900006f6e0000fe
:10216c003a2000002d2d00000025000034640000f2
:10217c00206400005f6d000069730000736500004f
:10218c00732100002121000000510000454900008e
:0c219c003a20000025350000750000000e
:020000040000fa
:1021a8000000fa0024852b00e5e92300044288009a
:1021b80015428800e47a240015e6230024428800aa
:1021c80035428800a4702d0035ba230044428800a7
:1021d8005542880024852b00e5e9230064428800e5
:1021e80075428800e47a240015e6230084428800ba
:1021f80095428800a4702d0035ba2300a4428800b7
:10220800b5428800044280001542800002002c007c
:10221800135c24000400be0003f907000002be009e
:102228000400be0034f907000002be000402780072
:10223800c442880064428000754280000200280081
:10224800435d24000400be00f7f807000002be004a
:102258000400be0028f907000002be00040278004e
:10226800d44288000080fa00000006000000fa004e
:10227800889fbe0044438000050020000400be0083
:102288003ef907000003be0044408000554080002e
:102298000401be000600be003af907000002be00b5
:1022a800144188002541880016418000274180009c
:1022b800f4408000054180000401be000600be0015
:1022c80030f907000002be00d2cc2c00c3d4230092
:1022d8000400be0089f907000002be00b44088006f
:1022e800c54088001441800025418000d2cc2c00d4
:1022f800c3d423000400be00cbf807000002be00d0
:102308000403be00d4408000e54080000401be0004
:102318000600be001cf907000002be00d440880079
:10232800e540880006428000174280001441800082
:10233800254180000401be000600be00baf807006f
:102348000002be000404be004642800057428000de
:10235800d4408000e54080000401be000600be00b5
:10236800b1f807000002be000401be000800be006c
:1023780005f907000002be000404be0026428000e2
:1023880037428000b4408000c54080000401be0090
:102398000600be00a4f807000002be000401be004b
:1023a8000800be00f8f807000002be0034418800ab
:1023b80045418800c4428000cfa2de000400be0070
:1023c80090f907000002be000401be0000002000d2
:1023d8006149240049f907000002be000403be0059
:1023e800344180004541800005f0a2000401be0090
:1023f8000600be008cf807000002be0002002000a4
:10240800f34a24000400be00dff807000002be0003
:102418000400be007ef907000002be000402780036
:10242800644388006543800034382000848f52005c
:1024380003003e004438200064438800060037004b
:102448006543800044832000848f520002003600d8
:1024580044832000644388001441800025418000a3
:10246800f44088000541880044438000a440880067
:1024780064438000040078004f04be000080fa0026
:10248800000006000000fa00889fbe005443800048
:10249800050020000400be00b8f807000003be00d5
:1024a80064408000754080000401be000600be0044
:1024b800b4f807000002be00c4418800d541880076
:1024c800c6418000d7418000a4418000b54180000a
:1024d8000401be000600be00aaf807000002be0004
:1024e800d2cc2c00c3d423000400be0003f907009b
:1024f8000002be006441880075418800c441800024
:10250800d5418000d2cc2c00c3d423000400be00e7
:1025180045f807000002be000403be0084418000a5
:10252800954180000401be000600be0096f8070031
:102538000002be0084418800954188006642800000
:1025480077428000c4418000d54180000401be006c
:102558000600be0034f807000002be000404be00f6
:10256800a6428000b74280008441800095418000e7
:102578000401be000600be002bf807000002be00e2
:102588000401be000800be007ff807000002be007c
:102598000404be00864280009742800064418000a7
:1025a800754180000401be000600be001ef8070049
:1025b8000002be000401be000800be0072f8070059
:1025c8000002be00e4418800f5418800d442800042
:1025d800cfa2de000400be000af907000002be0018
:1025e8000401be000000200061492400c3f8070070
:1025f8000002be000403be00e4418000f5418000f3
:1026080005f0a2000401be000600be0006f807009f
:102618000002be0002002800134b24000400be0084
:1026280059f807000002be000400be00f8f80700d1
:102638000002be00040278007443880075438000dd
:1026480034382000848f520003003e0044382000b4
:1026580074438800060037007543800044832000d7
:10266800848f52000200360044832000744388009f
:10267800c4418000d5418000a4418800b54188004c
:10268800544380005441880074438000040078005b
:102698004f04be000080fa00000006000000fa00a7
:1026a80005e1a9000421a90004c1a90024088000ab
:1026b8000440a0000450a00024088800441f200003
:1026c800140888000002eb00040888002405800034
:1026d80004c0a00004d0a10004e0a10024058800e3
:1026e8008460a9009460a80005e1a8000080fa00b1
:1026f800000006001000fa00889fbe008a9fbe00f6
:102708008c9fbe006022b8003407980045079800e7
:102718000042eb00444798004e4090003047980034
:10272800be409000214798002e4290001447980020
:102738006143a900041b80000480a1000490a1004b
:10274800041b8800041b80000450a0000460a00043
:102758000470a000041b88000002eb00141b880012
:1027680065e3a900251b800004f0210004827200a3
:10277800241b880024c0b3000440780064e3b70039
:1027880061e3a80086fe07008805070073020700ba
:10279800400507000040eb009e02070080c1b3001f
:1027a8009c0207000040eb007602070090c1b300ce
:1027b800980207000040eb0072020700640a290033
:1027c800841f780024fb07008f87e900809420008d
:1027d80028fb0700b1ff07000042eb00044f780018
:1027e80022003700140280004522de0067426200a2
:1027f800244f98009102800061079800ff3ffc0079
:10280800140280000450a0000460a0000470a0001e
:10281800140288006e02900094028800000088006c
:102828000481200014427800044f78009002800050
:1028380070079800ff3ffc002e4a90006742620034
:102848000482fb00670262004522dd001602800058
:10285800f5f12f00850263000482720014028800db
:102868007e02900094028800000088001e427800d2
:10287800e04f5200dbff32001e429000e04f520052
:1028880052003a0054438000050020000400be00b6
:10289800baf707000006be006a4080007b4080004f
:1028a80044438000050020000400be00b3f7070081
:1028b80048408000594080000c03be000a02be0058
:1028c8000001be000800be00640407003e0090003e
:1028d800ce009000a9f707000002be00d2cc2c0061
:1028e800c3dc23000400be004ff707000002be004f
:1028f8000400be0061f807000002be0002002000cc
:10290800f33a24000400be0047f707000002be00a7
:1029180002002400e34c24000400be009af70700dc
:102928000002be0044408800554088003e009000e8
:10293800ce00900091f707000002be00d2cc2c0018
:10294800c3dc23000400be0037f707000002be0006
:102958000400be004bf807000002be000200200081
:10296800f33a24000400be002ff707000002be005f
:1029780002002c00834a24000400be0082f70700ee
:102988000002be0064408800754088003e02900046
:10299800ce02900061024200e0824a0034079800ab
:1029a8004507980031fe0700b6fe07006443800023
:1029b8008400780010c0b3009e04070074438000b0
:1029c800840078000040eb009a0407002e42900033
:1029d800e04f520016003a0024812000144278008b
:1029e800e04f52001200320080c1b3000902070014
:1029f8000040eb00e301070090c1b30005020700a7
:102a080000c3b300df0107002481200014427800ce
:102a18000482fb00841f7800b40b2900841f78000f
:102a28008dfa0700e48757008094200091fa070088
:102a38003e429000e04f520014003a0080c1b300bb
:102a4800f40107000040eb00ce01070090c1b3007d
:102a5800f001070080c3b300ca010700650407003e
:102a680000027800841f7800b40c2900841f7800c5
:102a780079fa0700e4875700809420007dfa070060
:102a88004e4290000442e800444798001e429000dd
:102a98000482fb008402e8002400200011000900e1
:102aa8008402d80001027800144798002e42900052
:102ab8000482fb008402e8004401200011000900a0
:102ac8008402d80001027800244798003e42900012
:102ad8000482fb008402e80044062000110009007b
:102ae8008402d80001027800344798000042eb00c5
:102af8000440780010e8b70037ff37000a00fa00f2
:102b0800000f7800110798002207980033079800f3
:102b1800440798001e0290009e0f52009c0031004e
:102b2800be0290002e029000848f52004c003100ab
:102b38009e0290003e029000848f520024003100d3
:102b48004e0290009e027800848f520010003100df
:102b58003e0290009e027800848f520006003100e9
:102b6800ce0290003e029000850f5200070036000a
:102b78000502780005003700ae0290001e027800ba
:102b8800850f520001003600050278000f0037005b
:102b9800ce0290003e029000848f52000600310061
:102ba8009e0278003e029000850f52000700360012
:102bb8000502780005003700ae0290004e02900032
:102bc800850f520001003600050278002300370007
:102bd800ae0290004e029000848f52001000310027
:102be8009e0290002e029000848f52000600310051
:102bf8009e0278002e029000850f520007003600d2
:102c08000502780005003700ce0290001e029000f1
:102c1800850f520001003600050278000f003700ca
:102c28009e0290004e029000848f520006003100f0
:102c38009e0278004e029000850f52000700360071
:102c48000502780005003700ae0290001e029000d1
:102c5800850f520001003600050278004b0037004e
:102c68009e0290002e029000848f520024003100b2
:102c78004e0290009e027800848f520010003100ae
:102c88002e0290009e027800848f520006003100c8
:102c9800ce0290002e029000850f520007003600e9
:102ca8000502780005003700be0290001e02780079
:102cb800850f520001003600050278000f0037002a
:102cc800ce0290002e029000848f52000600310040
:102cd8009e0278002e029000850f520007003600f1
:102ce8000502780005003700be0290004e029000f1
:102cf800850f5200010036000502780023003700d6
:102d0800be0290004e029000848f520010003100e5
:102d18009e0290003e029000848f5200060031000f
:102d28009e0278003e029000850f52000700360090
:102d38000502780005003700ce0290001e029000c0
:102d4800850f520001003600050278000f00370099
:102d58009e0290004e029000848f520006003100bf
:102d68009e0278004e029000850f52000700360040
:102d78000502780005003700be0290001e02900090
:102d8800850f520001003600050278009b003700cd
:102d9800be0290002e029000848f52004c00310039
:102da8003e0290009e027800848f52002400310079
:102db8009e0290004e029000848f52001000310055
:102dc8009e0290003e029000848f5200060031005f
:102dd800ce0290003e029000850f52000700360098
:102de8000502780005003700ae0290001e02900030
:102df800850f520001003600050278000f003700e9
:102e0800ce0290003e029000848f520006003100ee
:102e18009e0290003e029000850f52000700360087
:102e28000502780005003700ae0290004e029000bf
:102e3800850f520001003600050278002300370094
:102e4800ae0290004e029000848f520010003100b4
:102e58002e0290009e027800848f520006003100f6
:102e68009e0290002e029000850f52000700360047
:102e78000502780005003700ce0290001e02780097
:102e8800850f520001003600050278000f00370058
:102e98004e0290009e027800848f52000600310096
:102ea8009e0290004e029000850f520007003600e7
:102eb8000502780005003700ae0290001e02780077
:102ec800850f520001003600050278004b003700dc
:102ed8002e0290009e027800848f52002400310058
:102ee8009e0290004e029000848f52001000310024
:102ef8009e0290002e029000848f5200060031003e
:102f0800ce0290002e029000850f52000700360076
:102f18000502780005003700be0290001e029000ee
:102f2800850f520001003600050278000f003700b7
:102f3800ce0290002e029000848f520006003100cd
:102f48009e0290002e029000850f52000700360066
:102f58000502780005003700be0290004e0290007e
:102f6800850f520001003600050278002300370063
:102f7800be0290004e029000848f52001000310073
:102f88003e0290009e027800848f520006003100b5
:102f98009e0290003e029000850f52000700360006
:102fa8000502780005003700ce0290001e02780066
:102fb800850f520001003600050278000f00370027
:102fc8004e0290009e027800848f52000600310065
:102fd8009e0290004e029000850f520007003600b6
:102fe8000502780005003700be0290001e02780036
:102ff800850f5200010036000502780004007800b1
:103008000080fa00000006003600f800809fbe002d
:10301800829fbe00849fbe00869fbe00889fbe0020
:103028008a9fbe003400f80000002000a00188003c
:103038000000fa008460a90004812000144278008e
:10304800e14f520005003a00248120001442780024
:103058000442e8000440780012e8b7001481200018
:1030680014427800e04f520018003a008703070026
:1030780080057800850307000005780083030700b2
:103088008004780081030700000478007f030700ac
:10309800800278000b0278008a0178000901780024
:1030a800880078000500780094fe07000002780088
:1030b8004443880010c0b3005c03070014c0b30089
:1030c8000440780011e8b700170037006f030700c5
:1030d800800578006d030700000578006b03070082
:1030e800800478006903070000047800670307007c
:1030f800800278000b0278008a01780009017800c4
:1031080088007800050078007cfe0700000278003f
:10311800544388000040eb00440307000042eb00e2
:103128000440780011e8b70014c0b30004407800e8
:1031380010e8b7000080fa003400f9004f05be001f
:103148004f04be004f03be004f02be004f01be0039
:103158004f00be003600f900004006000000fa00eb
:10316800620020000140200000002800b6f8070097
:1031780000802e0031002000baf407000080fa0019
:10318800000006000200fa00004f78000100370036
:103198000000000023c2bf00624060000004e0009d
:1031a800fbff3a001e80fb00201188000100370059
:1031b8000000000023c2bf00614060000004e0007e
:1031c800fbff32000080fa00000006000600fa004b
:1031d80010079800414798000040eb00004f780026
:1031e800070037001e80fb00800078001e0090005a
:1031f8000080400010407800e2ff07001e4fe80002
:103208004e4090009e4f1000f6ff39000080fa00f3
:10321800000006000200fa00004f7800c0c7b300a3
:10322800d8ff07001e407800d6ff07000080fa008c
:10323800000006000000fa00c0c7b300d1ff070075
:103248000040eb00cfff07000080fa0000000600f6
:103258000200fa00000f7800c0c7b300c9ff0700da
:1032680010c0b300c7ff07001e007800c5ff0700a5
:103278000080fa00000006000200fa00000f780043
:10328800c0c7b300bfff070020c0b300bdff0700e1
:103298001e007800bbff07000080fa00000006004f
:1032a8000800fa00000f780011079800220798001c
:1032b80033079800c0c7b300b2ff070030c0b3009f
:1032c800b0ff07001e007800aeff07001e00900048
:1032d800acff07002e009000aaff07003e009000f8
:1032e800a8ff07000080fa00000006000000fa00ae
:1032f800c0c7b300a3ff070040c0b300a1ff070089
:103308000080fa00000006000800fa00000f7800ac
:10331800110798002207980033079800c0c7b30028
:1033280098ff070050c0b30096ff07001e00780002
:1033380094ff07001e00900092ff07002e009000e7
:1033480090ff07003e0090008eff07000080fa0003
:10335800000006000000fa00c0c7b30089ff07009c
:1033680060c0b30087ff07000080fa000000060075
:103378000200fa00000f78001e00e00002003c0086
:1033880010002000000f7800600020009e0f100041
:103398000200340060002000000f7800c0c7b300ae
:1033a80078ff070070c0b30076ff07001e007800a2
:1033b80074ff07000080fa00000006000000fa0011
:1033c800c0c7b3006fff070080c0b3006dff0700e0
:1033d8000080fa00000006000200fa00000f7800e2
:1033e800c0c7b30067ff0700a0c0b30065ff0700b0
:1033f8001e00780063ff07000080fa000000060046
:103408000800fa00000f78001107980022079800ba
:1034180033079800c0c7b3005aff0700b0c0b30015
:1034280058ff07001e00780056ff07001e00900096
:1034380054ff07002e00900052ff07003e00900046
:1034480050ff07000080fa00000006000a00fa009a
:10345800000f78001107980022079800330798009a
:1034680044079800c0c7b30046ff0700c0c0b300b8
:1034780044ff07001e00780042ff07001e0090006e
:1034880040ff07002e0090003eff07003e0090001e
:103498003cff07004e0090003aff07000080fa004a
:1034a800000006000a00fa0010079800210798009b
:1034b8003207980043079800c0c7b30031ff0700e0
:1034c800d0c0b3002fff07001e0090002dff07009b
:1034d8002e0090002bff07003e00900029ff0700f8
:1034e8000000eb00000f7800070037001e0078008e
:1034f800800078004e009000008040001040780066
:1035080020ff07001e0fe800f00120009e0f1000aa
:10351800f6ff34000080fa00000006000a00fa00f6
:10352800000f7800110798002207980033079800c9
:1035380044079800c0c7b30012ff0700f0c0b300eb
:1035480010ff07001e0078000eff07001e00900005
:103558000cff07002e0090000aff07003e009000b5
:1035680008ff07004e00900006ff07000080fa00e1
:10357800000006000600fa00000f78001107980006
:1035880022079800c0c7b300fefe070000c1b300c1
:10359800fcfe0700000820009e0f10000300340006
:1035a80000c8b300f7fe0700070037001e00e00060
:1035b80003003d000040eb00f2fe07000200370068
:1035c8001e007800effe07009e0090000004200017
:1035d800808f50000300340000c4b300e9fe0700e8
:1035e800080037001e0090000000e00003003d00c6
:1035f8000040eb00e3fe0700020037001e009000c9
:10360800e0fe07002e009000e10f50000600320097
:103618002e0090000000e0000300320010c0b3004c
:10362800d8fe0700020037002e009000d5fe0700e4
:103638000080fa00000006000a00fa00000f780077
:10364800110798002207980033079800044f980044
:10365800c0c7b300cbfe070020c1b300c9fe0700f6
:103668001e007800c7fe07001e009000c5fe070078
:103678002e009000c3fe07003e009000c1fe070028
:103688000e489000bffe07000080fa000000060008
:103698000000fa00c0c7b300bafe070040c1b3007b
:1036a800b8fe07000080fa00000006000000fa00db
:1036b800c0c7b300b3fe070050c1b300b1fe070096
:1036c8000080fa00000006000e00fa0010079800bb
:1036d800210798003207980043079800540798007c
:1036e80065079800c0c7b300a6fe070060c1b30015
:1036f800a4fe07001e009000a2fe07002e00900006
:10370800a0fe07003e0090009efe07004e009000bd
:103718009cfe07005e0090009afe0700ce00900015
:103728005e0090000088b9008200200011000900a6
:103738000200d800000f78000000eb001007980086
:10374800090037001e009000800078006e0090008d
:1037580000804000104078008afe07001e0090009c
:103768000000e800100798001e0090009e0f50000f
:10377800f4ff35000080fa00000006000400fa009b
:10378800000f780011079800c0c7b3007dfe07003e
:1037980080c1b3007bfe07001e00780079fe070099
:1037a800c0c7b30077fe070090c1b30075fe0700dd
:1037b8001e00900073fe07000080fa00000006005b
:1037c8000400fa00100798001e009000e80f50004f
:1037d8000300340080002000100798000c00370018
:1037e8001e0090000000e00003003c0010002000d4
:1037f80010079800060037001e0090004300dd0007
:10380800680f50009e00780010002000dbff0700c2
:083818000080fa000000060028
:020000040000fa
:10382000000800005c000000020000002c011c00e9
:103830000c900100280a000040ce440000c0c100e6
:103840004400000000000000000000000000000034
:103850000000000000000000000000000000000068
:103860000000000000000000000000000000000058
:103870000000000000000000000000000000000048
:10388000003d0a00573e9a0099193e0000000000d2
:10389000003d0a00573e9a0099193e0000000000c2
:1038a00000440400c2040000680800000800000092
:1038b000000000005c0800000c0000000200000096
:1038c00000000000000000000000000000000000f8
:1038d0007008000002000000000000006209000003
:1038e00006000000000000003c0900002600000067
:1038f00002000000630900000063090009000000e5
:103900000002000065090000006509000e020100c8
:10391000000000000000000000000000060202009d
:10392000000000003c090000120900002a0000000d
:1039300002000000303132003334350036373800b1
:1039400039414200434445004600300031323300e3
:1039500034353600373839006162630064656600cb
:1039600000286e00756c6c002900000072080000d1
:10397000a0000000020000000100000000000000a4
:1039800000000a00000000000000000000640000c9
:103990000000000000000000e8030000000000003c
:1039a00000001000270000000000000000a08600ba
:1039b000010000000000000040420f000000000075
:1039c0000000800096980000000000000000e10068
:1039d000f50500000000000000ca9a003b0000004e
:1039e00000000000e40b5400020000000000e800aa
:1039f00076481700000000000010a500d4e8000081
:103a000000000000a0724e001809000000004000f5
:103a10007a10f3005a0000000080c600a47e8d00da
:103a20000300000000c16f00f286230000000000c8
:103a30008a5d78004563010000006400a7b3b6000a
:103a4000e00d000000e889000423c7008a000000a0
:103a500068090000020000000200000001000000f0
:043a60000000000062
:020000040000fa
:103a64001800fa00889fbe0040079800510798008c
:103a74006207980073079800040f9800150f9800c8
:103a8400260f9800370f98006e019000fe019000f9
:103a94004e009000de0090003bf307000002be00e1
:103aa4000401be000400be00e0f207000002be00f4
:103ab4000404be002e099000be0990000e08900078
:103ac4009e08900030f307000002be000401be000f
:103ad4000400be00d5f207000002be000401be00cf
:103ae4000800be0029f307000002be00a2702d00ea
:103af40033c223000400be00ccf207000002be0063
:103b0400048fbe0024438000cfa2de000400be0068
:103b1400bdf307000002be000401be000400be00a5
:103b2400c2f207000002be000404be003443800059
:103b3400cfa2de000400be00b3f307000002be0003
:103b44000401be000400be00b8f207000002be007b
:103b54000401be000800be000cf307000002be0012
:103b6400a2702d0033c223000400be00aff2070090
:103b74000002be002407980035079800e442800044
:103b8400f5428000a2702d0033ca23000400be0059
:103b9400fef207000002be00e4428800f5428800fd
:103ba4002e019000be0190001e00be00f7f2070037
:103bb4000002be00a2702d0033ca23000400be0020
:103bc4009af207000002be000403be000443800012
:103bd400154380000401be000600be00ebf207009e
:103be4000002be0004438800154388004f04be0051
:103bf4000080fa00000006000000fa00064380007e
:103c040017438000e4428000f54280000401be00b6
:103c14000600be003af307000002be000400be0026
:103c24007cf307000002be00040278000400780060
:103c34000080fa00000006000400fa00004f78003b
:103c4400110798009e4278000582fb00e00f5200a5
:103c540007003200e10f52000a003a009e02900071
:103c640044a22f0004824200244388000500370048
:103c74009e02900044a22f00048242003443880034
:103c8400000000009e0090001e4078001d00070008
:103c94000080fa00000006000000fa00d2e2a90049
:103ca400d2c2a90011e1a9001021a90010c1a900e4
:103cb4000002eb0034088800840880000440a1005e
:103cc4000450a0008408880084e0a90094e0a900be
:103cd40004fa20006408880044e72000640d88008a
:103ce40044e72000340d880064002000740d88002f
:103cf40064002000440d880011e1a8000080fa004f
:103d0400000006000400fa00004f78001107980034
:103d14001e427800e14f520012003a0005e22400ee
:103d24001e02900004825200050020000400be0020
:103d340093f207000002be0002002000030a2400e0
:103d44000400be00eef207000002be000400be0044
:103d540030f307000002be0004027800540d88000e
:103d64001100370005e224001e0290000482520074
:103d7400050020000400be0081f207000002be001e
:103d840002002000030a24000400be00dcf2070045
:103d94000002be000400be001ef307000002be00c5
:103da40004027800240d88000080fa000000060058
:103db4000000fa0021e3a900c7e2a8002de3a9004e
:103dc400c722a8002d23a9002143a80004198000bc
:103dd4000480a1000490a100041988000419800043
:103de4000450a0000460a0000470a000041988001e
:103df4000002eb001419880025e3a90025198000ae
:103e040004f02100048272002419880024c0b30045
:103e14000440780024e3b70021e3a800d822a900d5
:103e2400d842a900d862a9000080fa000000060068
:103e34000200fa00004f78001e427800e04f520062
:103e440009003a00dc22a900dc42a800dc62a800d8
:103e54004519800004fe2f0004826200f400b300c0
:103e64004419880008003700dc22a800dc42a900bd
:103e7400dc62a9004519800004fe2f000482620060
:103e84009400b300441988000080fa000000060082
:103e94000000fa002023a80000000000041980009c
:103ea40061026200e00f5200fcff32002003a9000f
:103eb40004188000040078000080fa000000060066
:020000040000fa
:0200000401f009
:04000800ffff0000f6
:020000040000fa
:0200000401f009
:04000c00fbff0000f6
:020000040000fa
:0200000401f009
:04001000fdff0000f0
:020000040000fa
:0200000401f009
:040014007fff00006a
:00000001FF
