:020000040000fa
:080000000002040000000000f2
:020000040000fa
:100008000c0400000c0400000c0400000c040000a8
:100018000c0400000c0400000c0400000c04000098
:100028000c0400000c0400000c040000b4020000e2
:100038000c0400000c0400000c0400000c04000078
:100048000c0400000c0400000c0400000c04000068
:100058000c0400000c0400000c0400000c04000058
:100068000c0400000c0400000c0400000c04000048
:100078000c0400000c0400000c0400000c04000038
:100088000c0400000c0400000c0400000c04000028
:100098000c0400000c0400000c0400000c04000018
:1000a8000c0400000c0400000c0400000c04000008
:1000b8000c0400000c0400000c0400000c040000f8
:1000c8000c0400000c0400000c0400000c040000e8
:1000d8000c0400000c0400000c0400000c040000d8
:1000e8000c0400000c0400000c0400000c040000c8
:1000f8000c0400000c0400000c0400000c040000b8
:100108000c0400000c0400000c0400000c040000a7
:100118000c0400000c0400000c0400000c04000097
:100128000c0400000c0400000c0400000c04000087
:100138000c0400000c0400000c0400000c04000077
:100148000c0400000c0400000c0400000c04000067
:100158000c0400000c0400000c0400000c04000057
:100168000c0400000c0400000c0400000c04000047
:100178000c0400000c0400000c0400000c04000037
:100188000c0400000c0400000c0400000c04000027
:100198000c0400000c0400000c0400000c04000017
:1001a8000c0400000c0400000c0400000c04000007
:1001b8000c0400000c0400000c0400000c040000f7
:1001c8000c0400000c0400000c0400000c040000e7
:1001d8000c0400000c0400000c0400000c040000d7
:1001e8000c0400000c0400000c0400000c040000c7
:0801f8000c0400000c040000df
:020000040000fa
:100208000c0400000c0400000c0400000c040000a6
:100218000c0400000c0400000c0400000c04000096
:100228000c0400000c0400000c040000b4020000e0
:100238000c0400000c0400000c0400000c04000076
:100248000c0400000c0400000c0400000c04000066
:100258000c0400000c0400000c0400000c04000056
:100268000c0400000c0400000c0400000c04000046
:100278000c0400000c0400000c0400000c04000036
:100288000c0400000c0400000c0400000c04000026
:100298000c0400000c0400000c0400000c04000016
:1002a8000c0400000c0400000c0400000c04000006
:1002b8000c0400000c0400000c0400000c040000f6
:1002c8000c0400000c0400000c0400000c040000e6
:1002d8000c0400000c0400000c0400000c040000d6
:1002e8000c0400000c0400000c0400000c040000c6
:1002f8000c0400000c0400000c0400000c040000b6
:100308000c0400000c0400000c0400000c040000a5
:100318000c0400000c0400000c0400000c04000095
:100328000c0400000c0400000c0400000c04000085
:100338000c0400000c0400000c0400000c04000075
:100348000c0400000c0400000c0400000c04000065
:100358000c0400000c0400000c0400000c04000055
:100368000c0400000c0400000c0400000c04000045
:100378000c0400000c0400000c0400000c04000035
:100388000c0400000c0400000c0400000c04000025
:100398000c0400000c0400000c0400000c04000015
:1003a8000c0400000c0400000c0400000c04000005
:1003b8000c0400000c0400000c0400000c040000f5
:1003c8000c0400000c0400000c0400000c040000e5
:1003d8000c0400000c0400000c0400000c040000d5
:1003e8000c0400000c0400000c0400000c040000c5
:0803f8000c0400000c040000dd
:020000040000fa
:100400000fd220000eff27000e0188000000000020
:1004100000012000200288000c000700c03c2100e1
:10042000010020001f000700000020000000e00085
:10043000020032000000020000000000e40202009e
:10044000000000000040da000000fe004440a90067
:10045000000520000000e000030032000000200042
:10046000a00188004440a80000000600f03fb10051
:100470000180b10006003500ee0309000000000015
:10048000403fb1000180b100fbff3d001000b00013
:10049000203fb0000200350000800900000000008d
:1004a0000000060091018800800078000000eb0049
:1004b00015003700e280400032a0b4009101ba007c
:1004c000e280400032a0b4009102ba00e280400015
:1004d00032a0b4000002eb00472bde00f507b200ab
:1004e000602ce10004003a000059eb008301e900b0
:1004f000fdff3e00040037006128e10001003200ea
:100500000082eb00040007001101ba000200e000c5
:10051000e8ff3a00000006003159ba008301e90003
:100520000c0032002159ba008301e90008003200b2
:100530000400e00003003a00e280400032a0b40072
:10054000f5ff370011d9ba008301e900faff3a003c
:100550008100e800e180400032a0b4000000060005
:10056000ce02040000000000841f78003400f80070
:1005700004002000a40188000000fa0005e1a900a1
:100580000002eb00044088008460a9000080fa00ab
:100590003400f9004f027800004006000400fa0021
:1005a000000f7800110798001e027800940278006e
:1005b0001e029000140278000482520004007800a9
:1005c0000080fa00000006000200fa00140020007b
:1005d000e4488800c10607000040eb00ed06070074
:1005e000d808070005e1a9000421a90004c1a90059
:1005f0000002eb0004088800240880000440a100e9
:100600000450a00024088800047d200014088800fd
:100610002405800004c0a00004d0a10004e0a100d3
:10062000240588008460a9009460a8000002eb0003
:10063000040f78000040eb00e208070014002000df
:10064000044088000002eb000408880005e1a800cf
:100650000000000004408000e00f5200fdff3a005f
:100660000002eb00040f780008003700ed080700d7
:10067000800278001e0278000403420024802000db
:1006800004024300050a78001e0fe8001e027800ed
:10069000e40f5200f5ff340010c0b300c908070092
:1006a00014002000044088000002eb0004088800c9
:1006b00005e1a8000000000004408000e00f5200a7
:1006c000fdff3a000002eb00040f7800080037003d
:1006d000d4080700800278001e027800040342005c
:1006e000c480200004024300050a78001e0fe800c1
:1006f0001e027800e40f5200f5ff3400e32c2000c6
:10070000220020005100200020802000a2010700cc
:10071000e32c20002200200051002000c080200097
:100720009d01070080c1b3009a0607000040eb005e
:100730007406070090c1b300960607000040eb0066
:1007400070060700e4012900841f78001a020700e0
:100750008f87e900c08e20001e02070080c1b30011
:100760008c0607000040eb006606070090c1b3004e
:10077000880607000040eb00620607003440800056
:10078000841f780074032900841f78000a02070080
:10079000e4875700c08e20000e02070080c1b3001e
:1007a0007c0607000040eb005606070090c1b3002e
:1007b0007806070080c0b3005206070064042900d1
:1007c000841f7800fc0107008f87e900c08e20009d
:1007d0000002070080c1b3006e0607000040eb0076
:1007e0004806070090c1b3006a06070080c0b30046
:1007f0004406070084408000841f7800f405290027
:10080000841f7800ec010700e4875700c08e2000a9
:10081000f001070085ff37000040da000000fe000d
:1008200000c0da00000006000a00fa00e20f5000e3
:1008300022003e00e4488000e10f52000600320032
:1008400087232000462320002423200005232000a6
:10085000e08f530004003a00872220004622200047
:10086000242220000522200000002800150060003e
:1008700003003a00800b780007002800958a730077
:10088000054020009482620001003a0014a0a000fc
:100890008202780006003700940378000710b20047
:1008a000fdff3200b103fb00070b78008502e90071
:1008b000e08f5200f8ff3a000800370034002000b3
:1008c000b4bf9f00c0bf9f00d1bf9f00e2bf9f0089
:1008d0006a805700d2ff07006fb9970002007800c6
:1008e0000080fa0000000600889fbe0080047800a7
:1008f000f0488000e00f500004003a000e000700ae
:100900000084eb00e00f500008003500f84880003c
:10091000e08f540005003200090044000600070083
:10092000e00f500001003d000084eb00080078005b
:100930004f04be0000000600e00f500004003a0023
:1009400004922000f4488800000278000600370076
:100950000082eb0005d22000850f500002003e000f
:10096000f04888000002eb00040078000000060058
:10097000889fbe008a9fbe003004be002005be00d6
:100980000404440085844c0006054d0087854d0015
:100990000898be000a90be000440e10005c8e100ce
:1009a00006d0e10007d8e1000200310068004000f5
:1009b0001008e8004f05be004f04be00000006000e
:1009c0001000fa00889fbe008a9fbe000605be0088
:1009d0000404be003002be002003be00c4b79f0066
:1009e000d5b79f00e6b79f00f7b79f0008025200f7
:1009f00089825a000a035b008b835b0084bf9f00df
:100a000095bf9f00a6bf9f00b7bf9f000498be0080
:100a10000698be00110020004fb29700dfb2970089
:100a20006fb39700ffb39700b200070001003900d1
:100a30008000eb00108810004f05be004f04be0080
:100a40000080fa00000006001400fa00889fbe0033
:100a50008a9fbe008c9fbe00790007000605be007d
:100a60000404be000006eb00ccb79f00bcb79f009b
:100a7000acb79f009cb79f008cb79f000d0420006f
:100a80004fb39700bfb29700860343002fb2970081
:100a9000e00f530004003d009b0007000f004000e2
:100aa000b3ff070003003700970007000f00400066
:100ab000c3ff0700cfb2970095bf9f00e08f5200a1
:100ac0000900350065000700140020000500200023
:100ad0006033b80000007200818072000201730070
:100ae00083817300560007000c06e8008d0f560046
:100af000e3ff3a001fba9700e00f520005003d00e7
:100b00000802be000a03be0000fe2f000f004000d6
:100b100097ff07004faa9700e00f520008003a0025
:100b20000fb497009fb497002fb59700bfb59700fb
:100b3000d8b79f00e9b79f00fab79f008bbf9f000f
:100b4000460007004f06be004f05be004f04be0022
:100b50000080fa0000000600881f780018002000be
:100b6000881f7800b8ff07008f87e9004f047800de
:100b700000000600801feb00b3ff07008f87e9002d
:100b800000000600889fbe008a9fbe00410007004b
:100b900007003d004400070018002000490007003e
:100ba00008003d002f0007000004eb00050037009f
:100bb0000004eb004300070002003d00290007008d
:100bc00018002000e4ff0700e00f5400010032008d
:100bd000410007004f05be004f04be0000000600a4
:100be000889fbe008a9fbe008c1f780029000700e6
:100bf00005003d002c0007001c0020003d00070000
:100c000007003d00050037000006eb002d0007003f
:100c100003003d006044b8006055b80013000700b1
:100c2000d4ff0700e00f5600010032002a00070041
:100c30004f0678004f05be004f04be0000000600be
:100c4000010007000000060090b79f00a1b79f00b9
:100c5000b2b79f00c3b79f0000000600080007005e
:100c6000000006006044b8006055b800040254005b
:100c700085825c0006035d0087835d00000006003e
:100c80001fb09700afb097003fb19700cfb197006a
:100c900000000600e00f5000e08f5800e00f590000
:100ca000e08f5900000006006044b8006055b800ad
:100cb0000000540081805c0002015d0083815d00c2
:100cc00000000600e00f5200e08f5a00e00f5b00ca
:100cd000e08f5b00000006006022b8006033b800bf
:100ce0000000520081805a0002015b0083815b009a
:100cf000000006000820e10009a8e1000ab0e100b8
:100d00000bb8e100000006004f2bde0087037300e4
:100d1000a7b79f004f23de00858242008502730043
:100d200095b79f00ffaa97004f2bde0004024200f8
:100d30000402730084b79f006faa97004f23de0060
:100d40008582420085027300f5af9f00ccff07004b
:100d50004f18de000402420000027200e4af9f0060
:100d6000c7ff0700000040008180480002014900e1
:100d700083814900b4ff07000802be000a03be00d9
:100d800000fe2f00000006004211880000118800bc
:100d90001111880000000600ef36b000889fbe00e9
:100da0008a9fbe008c9fbe008e1f78008004780052
:100db0000105780002047800d3b79f00f4312000c9
:100dc000840f5400060036000800e800ab0007005e
:100dd00080067800e08f560003003a006f0037006d
:100de0006dcc2f008f8646000042eb0084767c009d
:100df0000000eb00b0879c000a05e900ca879c0050
:100e00000006eb000802ea00c4b79f00e9b79f00a4
:100e1000880478004262dd0065c82f008f8242009e
:100e200065047a000482e80065077a000c06e90090
:100e30008800470025002000110009008500d80027
:100e40008000fd00098ab9006fb397008400430059
:100e5000090178000d0078005f0107008e05780019
:100e600008057800bcb79f0008067800010037002d
:100e70000a05e80009d2b9006fb0970004044000e9
:100e80008d007800080078005fb297000400010030
:100e9000e00f5000f6ff350009dab9006fb3970094
:100ea00004024300010037008b05e900840078004c
:100eb0000d00780084bf9f00f4b79f00dfb2970059
:100ec000050001007fb297004fb397000602420071
:100ed0000fb99700e00f5000f3ff35008b0f55005e
:100ee00005003c00880078000900780041010700f7
:100ef0000a05e8008b05e9008b0f5500ddff340083
:100f00000c0478003fb69700888255000a0257000b
:100f1000848f52000a003d008e0f550012003d00e4
:100f20000c06e8004262dd0060c82f000f004000a0
:100f3000040240000a1a78000e0a78000a003700fe
:100f40008b0f54000a003d000c06e8004262dd00f1
:100f500065c82f008f82420004824200081a780080
:100f60000b0a7800020037000b07780001003700f9
:100f70000a0478008e0f5400adff3500e00f5600d4
:100f8000a4ff3d0064cc2f000f024200848f560066
:100f9000020032000d007800c60007004f077800fd
:100fa0004f06be004f05be004f04be00ef1fb1004c
:100fb0000f17b100000006000000fa00688157001a
:100fc000cfb89700c08e2000120107000080fa0001
:100fd00000000600881f78000004780038009000a8
:100fe000000278001420b200e10f520005003a0020
:100ff0000002eb001404980028029000040c780012
:1010000019003700800278002520b2000000eb00b4
:1010100024202000848f520016003a00a80090007f
:10102000808f50001300320018019000800f510093
:101030001000320048009000fbfd070018029000ed
:10104000840f500003003200380290000403b30004
:10105000340498000002eb00140498002802900069
:10106000040c7800380090000002b2000100320049
:101070000080eb004f04780000000600e487470082
:10108000889fbe008a9fbe008c9fbe008e1f780086
:101090006490200035488000e08f52000b003a0039
:1010a000e402420035488800854888002402980000
:1010b00074488800a44290000504a00025429800ce
:1010c000e44290000504a0006542980067044000d7
:1010d0004244de004244dd00724880000492200059
:1010e00009d220008484540025002000110009004a
:1010f0008504d80080bf9f00050744000e07470005
:101100000003eb00e40544003cd220000406560036
:101110000806460002003700160020000d01780086
:101120002242900061026200020032000a00370091
:101130001509780092027800254290006102620051
:10114000fbff320008024100848f52000200390088
:10115000e00f54003f003d00920678000d00a10012
:10116000828f5600edff3e00e10f5300eaff3a0088
:101170000fba9700840f540002003600890f540004
:10118000100039006143b800614ab900b0ff2f0078
:10119000010020000402500085825800840f530093
:1011a000858f5b00020035000b05780006003700d4
:1011b000110009000986d8000982b90004057800e9
:1011c000010037000e0578000a007800c6fd070010
:1011d000e10f400005003a000b0578000b00780095
:1011e000c1fd0700e10f40002b0032008448800061
:1011f000000a78008448800064034200a442900002
:10120000860f5000020032000504a00001003700e4
:101210000504a10025429800640555000a05400018
:101220000a0878008a48880064902000040d78003d
:1012300085488000254290000404a000a442980044
:10124000204290000404a100244098000003eb0019
:10125000b2ff370074488800848f520007003600c0
:101260001403be0096488800a7488800120a780038
:101270008042eb0074488000254298007748800047
:1012800007097800224290000404a000244198003d
:1012900064004100010037000000eb004f077800b8
:1012a0004f06be004f05be004f04be004f00b10008
:1012b00000000600e00f50000800320064005000fb
:1012c00074488000840f500001003100704888008d
:1012d000204290000404a100244098000000060071
:1012e000889fbe008a9fbe000004be00e08f5400ad
:1012f00005003a00e00f5400320032000800780088
:10130000ecff070030003700e00f540004003a0003
:101310000900780059ff0700800478002a00370090
:10132000640254009405780068fa97006102620034
:101330000200320008007800deff07000900780094
:101340004eff070080047800e08f54001e0032003a
:10135000888f54001b00320069bd970009055500b5
:1013600042d5de0088855500c2ddde000a01780026
:101370008b0f5500010036000b0178004211dd0093
:10138000880078000900780013000700888f540057
:101390000d0031004255dd000a854400880f5500dc
:1013a000090036000804550042c4de004244dd0056
:1013b0000884440094488000a5488000048cbe0046
:1013c0000100370088047800090078004f05be004e
:1013d0004f04be0000000600000278000200370043
:1013e000315a78000201e900e00f5100fcff3a0099
:1013f000000006000400370011427800925878007f
:10140000045978000000e900e00f5000faff3a00ac
:10141000000006002f03b000889fbe008a9fbe0018
:101420008c9fbe008e1f7800e0af9f00c1af9f0071
:10143000b2b79f008006eb006e023700cfa897007e
:101440008100e800c1af9f0054c2b300844f500038
:1014500006003a00010278000006eb0001c3b30069
:1014600000c2b300b7c2b300070037000000fb00a2
:10147000efa897006b020700e10f40005d02320009
:101480008d06e8005b023700840278003443780060
:10149000d2c2b300824f53000900320005003c0065
:1014a000804f530008003200874f53000c003a0071
:1014b00007003700814f530009003a00060037004b
:1014c0000c30a000f0ff37000c00a000eeff37004a
:1014d0000c10a000ecff37000c20a000eaff370042
:1014e00062026600010032000c00a1006802660082
:1014f000010032000c20a1000602fb000403b10031
:10150000e90f52000c003e00050378000002eb00da
:101510006a22b900b603fb000703b100048243004e
:10152000860278009603fb000703b100e98f5300a1
:10153000f7ff3600080037000002eb00a7c2b30037
:10154000874f530004003a00bfb197004302780070
:10155000b3b79f008502e8000007eb00e6c2b300c6
:10156000954f13000a003a000ce0a00064435300ba
:10157000d54f130002003200050378000800370041
:101580003fb3970046077800b6b79f008502e80092
:1015900005037800080037006a70b900008743002f
:1015a00086027800b603fb000703b100e98f530001
:1015b000f9ff3600f6ff3700b6427800c6af9f004d
:1015c000c0c6b30080cf5200250032000f003c009f
:1015d00036c6b30086cf52006e00320004003c00d5
:1015e000e0cf5200080232006b4353000f00370077
:1015f00046c6b30086cf5200170032006543430051
:1016000086cf520083003a001300370036c7b3007c
:1016100086cf52001f00320007003c006443530095
:1016200086cf5200140032000643e80086cf5200f5
:1016300078003a001300370056c7b30086cf520037
:10164000790032006343430086cf520071003a00b4
:10165000a5c79f000d003700a5c79f007400370085
:10166000f00366000501200001003200050028009b
:1016700005067600d0ff3700a5c79f000c60a000cc
:101680006b003700a5c79f000c50a0000c70a00095
:1016900067003700a5c79f00bfb09700c102780060
:1016a000b1b79f0005047800e08f520001003a00b6
:1016b000888d2000080378008002eb0001003700cd
:1016c0008502e800e6c37a00e0cf5300fcff3a0051
:1016d00085047800e00f570003003200890f57009f
:1016e000010031008e0478000007eb00890f5200e2
:1016f00001003600090752006806660014003a002f
:1017000007003700efa8970000022000c50107007e
:10171000e10f4000010032008d06e8000e07e900ed
:10172000e00f5700f7ff3a000087eb000800370092
:10173000080278003400fb0004047800efa897004a
:10174000b8010700e10f4000010032008d06e800fb
:10175000090278008404e900e00f5200f4ff3a0027
:10176000e00f5600a301320007003700efa89700f2
:1017700000022000ab010700e10f40000100320031
:101780008d06e8000e07e900e00f5700f7ff3a006a
:10179000980137003fb19700c2027800b2b79f00ae
:1017a00005007800cf80de0001017800820178001a
:1017b000f0af9f0081b79f0092b79f00a3b79f0033
:1017c0004800de00c80add0000807200a0c79f004c
:1017d0007003660009003200e04f5000070032003d
:1017e000e14f400005003200b0c79f006fdb97005b
:1017f000c6c79f002900200003003700efdb9700d9
:10180000b7c79f001900200038fc2f000f044400c8
:10181000b0ff3700a5c79f0028fc2f000f0444002d
:1018200019002000abff3700a5c79f000c0cb300c8
:101830008c027800050cb2002b003a00e00f560035
:1018400005003d003fb097004005be004004be00cb
:10185000b0b79f0017003700f00266000f0032009b
:10186000bfb297004501be00b5b79f00c2a79f0059
:10187000d3a79f000503780096029000cfaade0050
:10188000e5a79f00f5a79f004fa49700dfa497004e
:101890006fa59700ffa59700060037003fb097009f
:1018a00040047800b0b79f00cfc4de00090578007f
:1018b0008a057800e00f5400e08f5c00e00f5d00c7
:1018c000e08f5d0025003d003c00b3006000b800e3
:1018d0006011b80008045000898458000a055900b6
:1018e0008b8559001d003700e00f560005003d00b4
:1018f000bfb097004105be004104be00b1b79f00d4
:1019000016003700f00266000e003200bfb29700ea
:101910004501be00b5b79f0082af9f0093af9f0007
:101920000003eb00a6af9f008003eb00b7af9f0062
:101930000fac97009fac97002fad9700bfad9700fd
:10194000060037003fb0970040047800b0b79f0012
:10195000090020000a0020000b002000e00f5700c3
:1019600007003a001e002000e00f5400e08f5c00ea
:10197000e00f5d00e08f5d00010032000007eb002a
:101980008c007800010cb200f1af9f00050420002c
:10199000858f50002c00320003003c00e08f500087
:1019a000080032003c003700050820007fa997009e
:1019b000850f510010003200050c2000850f5100ea
:1019c00035003a00e681200015c0b3003600be00a5
:1019d0003601be000040e10001c8e10002d0e10094
:1019e00003d8e1002b0039008542e800f4cf520013
:1019f000f6ff3a002700370015c0b30000012000b1
:101a0000010020006011b8000040e10001c8e100c1
:101a100002d0e10003d8e1001e003900460020009a
:101a20000000d0008180d2000281d2008381d200e8
:101a30000603e900faff3a008542e800f0cf5200c1
:101a4000f1ff3a001300370015c0b30080002000fa
:101a5000010020006011b8000040e10001c8e10071
:101a600002d0e10003d8e1000a003900370020006d
:101a70000000d0008180d2000281d2008381d20098
:101a80008703e900faff3a008542e800f5cf5200eb
:101a9000f1ff3a00a5c79f002fc097008002fb000e
:101aa0008e8f520002003d00aec79f00030037003a
:101ab000850f570001003d0005077800e00f520038
:101ac00003003200e3026600010032000402e90074
:101ad0000500240085026600050032008e0f5200ca
:101ae000020034000e025200010037000002eb0039
:101af0002fc197008202fb008001eb00d3af9f0053
:101b0000850f52000200340085025200d5af9f00bd
:101b1000640266002c003200e20266006102660088
:101b2000e08f520006003200b0022000e00f5200a9
:101b3000010032000080e800efa8970004003700a1
:101b4000e00f520006003200efa8970000022000cc
:101b5000b4000700e10f4000010032008d06e800ec
:101b60005faa9700e00f52008d0032000802be000d
:101b70000a03be00dfac9700efa897000003200027
:101b8000c4b79f00d5b79f00e6b79f00f7b79f0087
:101b9000a40007004fb29700dfb297006fb3970021
:101ba000ffb39700e10f4000010032008d06e8000e
:101bb0008904e900f0ff3a00d9af9f000605be0096
:101bc0000404be0076003700dfaa9700e08f5200c1
:101bd000180032006802660016003a000802be00d3
:101be0000a03be00dfac9700efa8970000022000b8
:101bf000c4b79f00d5b79f00e6b79f00f7b79f0017
:101c0000880007004fb29700dfb297006fb39700cc
:101c1000ffb39700e10f4000010032008d06e8009d
:101c20008904e900f0ff3a00d9af9f000605be0025
:101c30000404be00e202660061026600e08f52000a
:101c400006003200b0022000e00f52000100320016
:101c50000080e800efa8970004003700e00f520072
:101c60004f003200efa89700000220006d0007002f
:101c7000e10f40004a0032008d06e80048003700be
:101c80000e07e9007fab970007042000870f530081
:101c90002d00320003003c00e00f5300080032002a
:101ca00037003700040820007fae9700840f5600ed
:101cb00012003200040c2000840f560030003a005d
:101cc0004372dd0060812000000242005403be0028
:101cd0004402be000800be000a01be009efb0700d1
:101ce000a4002000050020006033b800a1fb07001d
:101cf00004c3b3000442400020003700748c20006d
:101d0000bfa29700e08f520001003200648b2000d8
:101d1000c272dd000800be000a01be008502e900b3
:101d2000050033008301d1000281d3008180d300fc
:101d30000080d300f9ff37006f0060006440780036
:101d4000a0c79f000e0037006372b9000800be00f4
:101d50000a01be00040678000c06e9000500330005
:101d60008301d1000281d3008180d3000080d300a1
:101d7000f9ff3700674260000443b000a4c79f002a
:101d8000afc097000100fb00efa8970025000700f7
:101d9000e10f4000060032008d06e8000400370025
:101da0000c0178000202b200b2a79f008cbf9f0016
:101db000e00f5700b2ff3a000fbe970068066600ba
:101dc0000c003200dfa99700e08f510009003400b9
:101dd00003067800efa8970000022000110007001a
:101de000e10f4000010032008d06e8000c06e9001a
:101df000f8ff3a004faa970014407800a0c79f0050
:101e0000e04f50008dfd3a000d0078004f0778003c
:101e10004f06be004f05be004f04be002f03b100a9
:101e200000000600889fbe00010478003802900080
:101e3000e20262008084eb003b0032000403780081
:101e40000620b2009802900002003a00e08f520093
:101e500035003a000490a000340498008004780013
:101e6000f90fb200e08f520002003a00a802900081
:101e7000050c7800ea8f540005003a000408b2000f
:101e800003003a0088007800d0002000e5ff07003a
:101e900018029000d8029000850f52000b0032000b
:101ea0000402e8001404980018027800094a780037
:101eb000040ce80015c0b30064912000054a7800c6
:101ec000ea8f540018003a000500370088007800b7
:101ed00009407800170007008004780012003700de
:101ee000380290000410b2000f0032001801900078
:101ef000a8009000480090004bfa070018029000dc
:101f0000840f500004003200380290000403b30034
:101f1000340498008084eb000002eb001404980065
:101f200028029000040c7800090078004f04be00dd
:101f3000000006000200fa00889fbe00a0ff9f007c
:101f40000104780038029000840278000504b20091
:101f5000020032000000fb0035003700e2026200a0
:101f600005003a000403b3003404980015049800f7
:101f70000080eb002e003700d8049000e08f540062
:101f800006003a0012002000e6805700480090004a
:101f900025fa07001904980023003700a8029000d2
:101fa000e08f520008003a00959120002504980027
:101fb000050c7800250020005504980015049800b1
:101fc0000430a0003404980018019000a80090008c
:101fd0004800900014fa0700280290008082eb006d
:101fe00015049800affa9700054a7800040ce80041
:101ff0002ffa9700ea4f52000b003a003802900087
:102000000410b2000800320018019000a8009000ef
:102010004800900004fa07000002eb001404980046
:10202000a8029000050c78002ffa97000400fb002e
:0c2030004f04be000080fa000000060013
:020000040000fa
:10203c0078200000706f0000736900007469000064
:10204c006f6e00003a2000002020000020200000cd
:10205c002020000020200000202000002020000074
:10206c0000780000207000006f730000697400009d
:10207c00696f00006e3a000020250000640000002b
:10208c0079200000706f0000736900007469000013
:10209c006f6e00003a20000020200000202000007d
:1020ac002020000020200000202000002020000024
:1020bc0000790000207000006f730000697400004c
:1020cc00696f00006e3a00002025000064000000db
:020000040000fa
:1020dc000000fa00620020000140200000002800ef
:1020ec0026fb070000802e0031002000dcf80700e2
:1020fc000080fa00000006000200fa00004f780091
:10210c00010037000000000023c2bf0062406000e5
:10211c000004e000fbff3a001e80fb002011880049
:10212c00010037000000000023c2bf0061406000c6
:10213c000004e000fbff32000080fa000000060003
:10214c000600fa0010079800414798000040eb0089
:10215c00004f7800070037001e80fb0080007800dd
:10216c001e0090000080400010407800e2ff070045
:10217c001e4fe8004e4090009e4f1000f6ff3900b5
:10218c000080fa00000006000200fa00004f780000
:10219c00c0c7b300d8ff07001e407800d6ff070069
:1021ac000080fa00000006000000fa00c0c7b3006f
:1021bc00d1ff07000040eb00cfff07000080fa00c2
:1021cc00000006000200fa00000f7800c0c7b30040
:1021dc00c9ff070010c0b300c7ff07001e0078003e
:1021ec00c5ff07000080fa00000006000200fa009c
:1021fc00000f7800c0c7b300bfff070020c0b300ba
:10220c00bdff07001e007800bbff07000080fa002e
:10221c00000006000800fa00000f78001107980073
:10222c002207980033079800c0c7b300b2ff07001d
:10223c0030c0b300b0ff07001e007800aeff0700ef
:10224c001e009000acff07002e009000aaff0700b4
:10225c003e009000a8ff07000080fa000000060076
:10226c000000fa00c0c7b300a3ff070040c0b300d2
:10227c00a1ff07000080fa00000006000800fa0029
:10228c00000f780011079800220798003307980078
:10229c00c0c7b30098ff070050c0b30096ff0700fb
:1022ac001e00780094ff07001e00900092ff0700ac
:1022bc002e00900090ff07003e0090008eff07005c
:1022cc000080fa00000006000000fa00c0c7b3004e
:1022dc0089ff070060c0b30087ff07000080fa0089
:1022ec00000006000200fa00000f78001e00e0005b
:1022fc0002003c0010002000000f7800600020005d
:10230c009e0f10000200340060002000000f7800c7
:10231c00c0c7b30078ff070070c0b30076ff07009a
:10232c001e00780074ff07000080fa000000060011
:10233c000000fa00c0c7b3006fff070080c0b300f5
:10234c006dff07000080fa00000006000200fa0092
:10235c00000f7800c0c7b30067ff0700a0c0b30030
:10236c0065ff07001e00780063ff07000080fa007d
:10237c00000006000800fa00000f78001107980012
:10238c002207980033079800c0c7b3005aff070014
:10239c00b0c0b30058ff07001e00780056ff0700be
:1023ac001e00900054ff07002e00900052ff070003
:1023bc003e00900050ff07000080fa00000006006d
:1023cc000a00fa00000f7800110798002207980005
:1023dc003307980044079800c0c7b30046ff0700b6
:1023ec00c0c0b30044ff07001e00780042ff070086
:1023fc001e00900040ff07002e0090003eff0700db
:10240c003e0090003cff07004e0090003aff070092
:10241c000080fa00000006000a00fa00100798007d
:10242c00210798003207980043079800c0c7b300f3
:10243c0031ff0700d0c0b3002fff07001e00900033
:10244c002dff07002e0090002bff07003e00900090
:10245c0029ff07000000eb00000f78000700370091
:10246c001e007800800078004e0090000080400034
:10247c001040780020ff07001e0fe800f00120003c
:10248c009e0f1000f6ff34000080fa0000000600da
:10249c000a00fa00000f7800110798002207980034
:1024ac003307980044079800c0c7b30012ff070019
:1024bc00f0c0b30010ff07001e0078000eff0700ed
:1024cc001e0090000cff07002e0090000aff070072
:1024dc003e00900008ff07004e00900006ff07002a
:1024ec000080fa00000006000600fa00000f7800d9
:1024fc001107980022079800c0c7b300fefe070022
:10250c0000c1b300fcfe0700000820009e0f100065
:10251c000300340000c8b300f7fe070007003700c3
:10252c001e00e00003003d000040eb00f2fe07003f
:10253c00020037001e007800effe07009e0090009e
:10254c0000042000808f50000300340000c4b3004e
:10255c00e9fe0700080037001e0090000000e000b4
:10256c0003003d000040eb00e3fe070002003700d3
:10257c001e009000e0fe07002e009000e10f5000be
:10258c00060032002e0090000000e0000300320034
:10259c0010c0b300d8fe0700020037002e009000d8
:1025ac00d5fe07000080fa00000006000a00fa00c1
:1025bc00000f780011079800220798003307980045
:1025cc00044f9800c0c7b300cbfe070020c1b30076
:1025dc00c9fe07001e007800c7fe07001e00900011
:1025ec00c5fe07002e009000c3fe07003e009000c1
:1025fc00c1fe07000e489000bffe07000080fa00e5
:10260c00000006000000fa00c0c7b300bafe0700c5
:10261c0040c1b300b8fe07000080fa0000000600bd
:10262c000000fa00c0c7b300b3fe070050c1b300ee
:10263c00b1fe07000080fa00000006000e00fa0050
:10264c00100798002107980032079800430798005c
:10265c005407980065079800c0c7b300a6fe070092
:10266c0060c1b300a4fe07001e009000a2fe07008c
:10267c002e009000a0fe07003e0090009efe07007a
:10268c004e0090009cfe07005e0090009afe070032
:10269c00ce0090005e0090000088b90082002000ff
:1026ac00110009000200d800000f78000000eb00b8
:1026bc0010079800090037001e0090008000780079
:1026cc006e00900000804000104078008afe0700e9
:1026dc001e0090000000e800100798001e009000fb
:1026ec009e0f5000f4ff35000080fa000000060039
:1026fc000400fa00000f780011079800c0c7b3005f
:10270c007dfe070080c1b3007bfe07001e00780031
:10271c0079fe0700c0c7b30077fe070090c1b30075
:10272c0075fe07001e00900073fe07000080fa0083
:10273c00000006000400fa00100798001e0090002c
:10274c00e80f5000030034008000200010079800b0
:10275c000c0037001e0090000000e00003003c005d
:10276c001000200010079800060037001e00900093
:10277c004300dd00680f50009e0078001000200020
:0c278c00dbff07000080fa0000000600e0
:020000040000fa
:102798000008000016000000000000001c090000ee
:1027a80002000000020000000100000016090000fd
:1027b8000600000000000000e008000026000000fd
:1027c80002000000170900000017090009000000b6
:1027d8000002000019090000001909000e0201009a
:1027e80000000000000000000000000006020200d7
:1027f80000000000e00800000609000010000000ca
:1028080000000000b60800002a00000002000000d6
:102818003031320033343500363738003941420020
:102828004344450046003000313233003435360029
:1028380037383900616263006465660000286e00fd
:10284800756c6c002900000016080000a00000004c
:1028580002000000010000000000000000000a0063
:1028680000000000000000000064000000000000fc
:1028780000000000e8030000000000000000100055
:10288800270000000000000000a0860001000000f2
:102898000000000040420f0000000000000080001f
:1028a80096980000000000000000e100f505000017
:1028b8000000000000ca9a003b0000000000000071
:1028c800e40b5400020000000000e80076481700fe
:1028d800000000000010a500d4e80000000000007f
:1028e800a0724e0018090000000040007a10f300a2
:1028f8005a0000000080c600a47e8d00030000007e
:1029080000c16f00f2862300000000008a5d780095
:102918004563010000006400a7b3b600e00d0000a5
:1029280000e889000423c7008a0000001e0900008f
:0c29380002000000000000000000000091
:020000040000fa
:102944000000fa0021e3a900c7e2a8002de3a900d2
:10295400c722a8002d23a9002143a8000419800040
:102964000480a1000490a1000419880004198000c7
:102974000450a0000460a0000470a00004198800a2
:102984000002eb001419880025e3a9002519800032
:1029940004f02100048272002419880024c0b300ca
:1029a4000440780024e3b70021e3a800d822a9005a
:1029b400d842a900d862a9000080fa0000000600ed
:1029c4000200fa00004f78001e427800e04f5200e7
:1029d40009003a00dc22a900dc42a800dc62a8005d
:1029e4004519800004fe2f0004826200f400b30045
:1029f4004419880008003700dc22a800dc42a90042
:102a0400dc62a9004519800004fe2f0004826200e4
:102a14009400b300441988000080fa000000060006
:102a24000000fa002023a800000000000419800020
:102a340061026200e00f5200fcff32002003a90093
:102a440004188000040078000080fa0000000600ea
:020000040000fa
:0200000401f009
:04000800ffff0000f6
:020000040000fa
:0200000401f009
:04000c00fbff0000f6
:020000040000fa
:0200000401f009
:04001000fdff0000f0
:020000040000fa
:0200000401f009
:040014007fff00006a
:00000001FF
